{
  "contractName": "TokenContract",
  "abi": [
    {
      "constant": true,
      "inputs": [],
      "name": "name",
      "outputs": [
        {
          "name": "",
          "type": "string"
        }
      ],
      "payable": false,
      "stateMutability": "view",
      "type": "function"
    },
    {
      "constant": true,
      "inputs": [],
      "name": "totalSupply",
      "outputs": [
        {
          "name": "",
          "type": "uint256"
        }
      ],
      "payable": false,
      "stateMutability": "view",
      "type": "function"
    },
    {
      "constant": true,
      "inputs": [],
      "name": "decimals",
      "outputs": [
        {
          "name": "",
          "type": "uint8"
        }
      ],
      "payable": false,
      "stateMutability": "view",
      "type": "function"
    },
    {
      "constant": true,
      "inputs": [],
      "name": "owner",
      "outputs": [
        {
          "name": "",
          "type": "address"
        }
      ],
      "payable": false,
      "stateMutability": "view",
      "type": "function"
    },
    {
      "constant": true,
      "inputs": [],
      "name": "symbol",
      "outputs": [
        {
          "name": "",
          "type": "string"
        }
      ],
      "payable": false,
      "stateMutability": "view",
      "type": "function"
    },
    {
      "inputs": [],
      "payable": false,
      "stateMutability": "nonpayable",
      "type": "constructor"
    },
    {
      "anonymous": false,
      "inputs": [
        {
          "indexed": true,
          "name": "from",
          "type": "address"
        },
        {
          "indexed": true,
          "name": "to",
          "type": "address"
        },
        {
          "indexed": false,
          "name": "value",
          "type": "uint256"
        }
      ],
      "name": "Transfer",
      "type": "event"
    },
    {
      "anonymous": false,
      "inputs": [
        {
          "indexed": true,
          "name": "owner",
          "type": "address"
        },
        {
          "indexed": true,
          "name": "spender",
          "type": "address"
        },
        {
          "indexed": false,
          "name": "value",
          "type": "uint256"
        }
      ],
      "name": "Approval",
      "type": "event"
    },
    {
      "constant": true,
      "inputs": [],
      "name": "ttlSupply",
      "outputs": [
        {
          "name": "totalSupply",
          "type": "uint256"
        }
      ],
      "payable": false,
      "stateMutability": "view",
      "type": "function"
    },
    {
      "constant": true,
      "inputs": [
        {
          "name": "owner",
          "type": "address"
        }
      ],
      "name": "balanceOf",
      "outputs": [
        {
          "name": "balance",
          "type": "uint256"
        }
      ],
      "payable": false,
      "stateMutability": "view",
      "type": "function"
    },
    {
      "constant": false,
      "inputs": [
        {
          "name": "to",
          "type": "address"
        },
        {
          "name": "amount",
          "type": "uint256"
        }
      ],
      "name": "transfer",
      "outputs": [
        {
          "name": "success",
          "type": "bool"
        }
      ],
      "payable": false,
      "stateMutability": "nonpayable",
      "type": "function"
    },
    {
      "constant": false,
      "inputs": [
        {
          "name": "from",
          "type": "address"
        },
        {
          "name": "to",
          "type": "address"
        },
        {
          "name": "amount",
          "type": "uint256"
        }
      ],
      "name": "transferFrom",
      "outputs": [
        {
          "name": "success",
          "type": "bool"
        }
      ],
      "payable": false,
      "stateMutability": "nonpayable",
      "type": "function"
    },
    {
      "constant": false,
      "inputs": [
        {
          "name": "spender",
          "type": "address"
        },
        {
          "name": "amount",
          "type": "uint256"
        }
      ],
      "name": "approve",
      "outputs": [
        {
          "name": "success",
          "type": "bool"
        }
      ],
      "payable": false,
      "stateMutability": "nonpayable",
      "type": "function"
    },
    {
      "constant": true,
      "inputs": [
        {
          "name": "owner",
          "type": "address"
        },
        {
          "name": "spender",
          "type": "address"
        }
      ],
      "name": "allowance",
      "outputs": [
        {
          "name": "remaining",
          "type": "uint256"
        }
      ],
      "payable": false,
      "stateMutability": "view",
      "type": "function"
    }
  ],
  "bytecode": "0x6060604052620f4240600355341561001657600080fd5b60048054600160a060020a03338116600160a060020a03199092169190911791829055600354911660009081526005602052604090205561068f8061005c6000396000f3006060604052600436106100ae5763ffffffff7c010000000000000000000000000000000000000000000000000000000060003504166306fdde0381146100b3578063095ea7b31461013d57806318160ddd1461017357806323b872dd14610198578063313ce567146101c057806370a08231146101e95780638da5cb5b1461020857806395d89b4114610237578063a9059cbb1461024a578063dd62ed3e1461026c578063fd1e68c214610291575b600080fd5b34156100be57600080fd5b6100c66102a4565b60405160208082528190810183818151815260200191508051906020019080838360005b838110156101025780820151838201526020016100ea565b50505050905090810190601f16801561012f5780820380516001836020036101000a031916815260200191505b509250505060405180910390f35b341561014857600080fd5b61015f600160a060020a0360043516602435610342565b604051901515815260200160405180910390f35b341561017e57600080fd5b6101866103af565b60405190815260200160405180910390f35b34156101a357600080fd5b61015f600160a060020a03600435811690602435166044356103b5565b34156101cb57600080fd5b6101d36104d0565b60405160ff909116815260200160405180910390f35b34156101f457600080fd5b610186600160a060020a03600435166104d5565b341561021357600080fd5b61021b6104f0565b604051600160a060020a03909116815260200160405180910390f35b341561024257600080fd5b6100c66104ff565b341561025557600080fd5b61015f600160a060020a036004351660243561056a565b341561027757600080fd5b610186600160a060020a0360043581169060243516610632565b341561029c57600080fd5b61018661065d565b60018054600181600116156101000203166002900480601f01602080910402602001604051908101604052809291908181526020018280546001816001161561010002031660029004801561033a5780601f1061030f5761010080835404028352916020019161033a565b820191906000526020600020905b81548152906001019060200180831161031d57829003601f168201915b505050505081565b600160a060020a03338116600081815260066020908152604080832094871680845294909152808220859055909291907f8c5be1e5ebec7d5bd14f71427d1e84f3dd0314c0f7b2291e5b200ac8c7c3b9259085905190815260200160405180910390a35060015b92915050565b60005481565b600160a060020a0383166000908152600560205260408120548290108015906104055750600160a060020a0380851660009081526006602090815260408083203390941683529290522054829010155b80156104115750600082115b80156104365750600160a060020a038316600090815260056020526040902054828101115b156104c557600160a060020a0380851660008181526005602081815260408084208054899003905560068252808420338716855282528084208054899003905594881680845291905290839020805486019055917fddf252ad1be2c89b69c2b068fc378daa952ba7f163c4a11628f55a4df523b3ef9085905190815260200160405180910390a35060016104c9565b5060005b9392505050565b601281565b600160a060020a031660009081526005602052604090205490565b600454600160a060020a031681565b60028054600181600116156101000203166002900480601f01602080910402602001604051908101604052809291908181526020018280546001816001161561010002031660029004801561033a5780601f1061030f5761010080835404028352916020019161033a565b600160a060020a0333166000908152600560205260408120548290108015906105935750600082115b80156105b85750600160a060020a038316600090815260056020526040902054828101115b1561062a57600160a060020a033381166000818152600560205260408082208054879003905592861680825290839020805486019055917fddf252ad1be2c89b69c2b068fc378daa952ba7f163c4a11628f55a4df523b3ef9085905190815260200160405180910390a35060016103a9565b5060006103a9565b600160a060020a03918216600090815260066020908152604080832093909416825291909152205490565b600354905600a165627a7a7230582030d52250a364144a194c4683c8fac8b1f0834a1f5bdcff8b8f9bae0d55cd44d50029",
  "source": "pragma solidity ^0.4.8;\r\n\r\nimport \"./ERC20Interface.sol\";\r\n\r\ncontract TokenContract is ERC20Interface {\r\n\r\n  string public name;\r\n  string public symbol;\r\n  uint8 public constant decimals = 18;\r\n\r\n  uint256 _totalSupply = 1000000;\r\n  address public owner;\r\n\r\n  // Balances for each account\r\n  mapping(address => uint256) balances;\r\n  \r\n  // Owner of account approves the transfer of an amount to another account\r\n  mapping(address => mapping (address => uint256)) allowed;\r\n\r\n  // Functions with this modifier can only be executed by the owner\r\n  modifier onlyOwner() {\r\n    if (msg.sender != owner) {\r\n      throw;\r\n    }\r\n    _;\r\n  }\r\n\r\n  function TokenContract() {\r\n    owner = msg.sender;\r\n    balances[owner] = _totalSupply;\r\n  }\r\n\r\n  function ttlSupply() constant returns (uint256 totalSupply) {\r\n    totalSupply = _totalSupply;\r\n  }\r\n\r\n  // What is the balance of a particular account?\r\n  function balanceOf(address owner) constant returns (uint256 balance) {\r\n    return balances[owner];\r\n  }\r\n  \r\n  // Transfer the balance from owner's account to another account\r\n  function transfer(address to, uint256 amount) returns (bool success) {\r\n    if (balances[msg.sender] >= amount \r\n      && amount > 0\r\n      && balances[to] + amount > balances[to]) {\r\n        balances[msg.sender] -= amount;\r\n        balances[to] += amount;\r\n        Transfer(msg.sender, to, amount);\r\n          return true;\r\n        } else {\r\n          return false;\r\n        }\r\n     }\r\n  \r\n  // Send value amount of tokens from address from to address to\r\n  // The transferFrom method is used for a withdraw workflow, allowing contracts to send\r\n  // tokens on your behalf, for example to \"deposit\" to a contract address and/or to charge\r\n  // fees in sub-currencies; the command should fail unless the from account has\r\n  // deliberately authorized the sender of the message via some mechanism; we propose\r\n  // these standardized APIs for approval:\r\n  function transferFrom(\r\n    address from,\r\n    address to,\r\n    uint256 amount\r\n  ) returns (bool success) {\r\n    if (balances[from] >= amount\r\n      && allowed[from][msg.sender] >= amount\r\n      && amount > 0\r\n      && balances[to] + amount > balances[to]) {\r\n        balances[from] -= amount;\r\n        allowed[from][msg.sender] -= amount;\r\n        balances[to] += amount;\r\n        Transfer(from, to, amount);\r\n        return true;\r\n    } else {\r\n      return false;\r\n    }\r\n  }\r\n  \r\n  // Allow spender to withdraw from your account, multiple times, up to the value amount.\r\n  // If this function is called again it overwrites the current allowance with value.\r\n  function approve(address spender, uint256 amount) returns (bool success) {\r\n    allowed[msg.sender][spender] = amount;\r\n    Approval(msg.sender, spender, amount);\r\n    return true;\r\n  }\r\n\r\n  function allowance(address owner, address spender) constant returns (uint256 remaining) {\r\n    return allowed[owner][spender];\r\n  }\r\n\r\n  event Transfer(address indexed from, address indexed to, uint256 value);\r\n\tevent Approval(address indexed owner, address indexed spender, uint256 value);\r\n\r\n}",
  "sourcePath": "C:\\Users\\zyeve\\WebstormProjects\\ipfs_eth_daemon\\core\\middleware-eth-chrono-sc-processor\\node_modules\\chronobank-smart-contracts\\contracts\\TokenContract.sol",
  "compiler": {
    "name": "solc",
    "version": "0.4.21+commit.dfe3193c.Emscripten.clang"
  },
  "schemaVersion": "2.0.0",
  "updatedAt": "2018-08-09T11:46:28.437Z"
}